:020000020000FC
:040000000C947200EA
:0200900049C065
:1000E40080E001E20EBF0FEF0DBF0FEF0DB9002747
:1000F4000EB90FEF04B905B907E10093CC0008E18C
:100104000093C9007894D2E0C0E0B2E0A0E055D0FA
:1001140012E041D049D01FE035D046D00E94BE0045
:100124005091C80057FFFCCF7091CE007D3059F03C
:100134007993172F0E94C2005091C80055FFFCCF3D
:100144007093CE0017C03ED032D010E41BD0DB1722
:1001540011F4CA1731F000E005B91D9111D027D070
:10016400F6CF0FEF05B9D2E0C0E0B2E0A0E012E0B4
:1001740009D000C00000D4CF11E004D018D00895F5
:1001840090E201C09927012F107F1295192B03D0FB
:10019400102F1F70192B20D00000759A000000004A
:1001A4007598000000000895FF27EEE108C0F3E011
:1001B400E8EE05C0F1E1E8EF02C0F3E2E8E23197CE
:1001C400F1F708952FE230EC48E64A95F1F73A95B5
:1001D400E1F72A95D1F708950F93002710FD0460E5
:1001E40011FD086012FD016013FD026014FD006240
:0A01F40015FD00680EB90F91089583
:00000001FF
